:1000000000000320B5050000FD050000010600000A
:10001000F9050000F9050000F905000000000000E6
:10002000000000000000000000000000F1040000DB
:10003000F90500000000000087050000970500009A
:100040001106000015060000190600001D0600003C
:100050002106000025060000290600002D060000EC
:100060003106000035060000390600003D0600009C
:100070004106000045060000490600004D0600004C
:1000800051060000F9050000F9050000F90500001F
:10009000F9050000F9050000F9050000F905000068
:1000A00055060000590600005D06000061060000CC
:1000B00065060000690600006D060000710600007C
:1000C00075060000790600007D060000810600002C
:1000D00085060000890600008D060000F905000075
:1000E000F9050000F9050000F9050000F905000018
:1000F000F9050000F9050000F9050000F905000008
:10010000F9050000F9050000F9050000F9050000F7
:10011000F9050000F9050000F9050000F9050000E7
:10012000F9050000F9050000F9050000F9050000D7
:10013000F9050000F9050000F9050000F9050000C7
:10014000F9050000910600009506000099060000E0
:100150009D060000A1060000F9050000F905000059
:10016000F9050000F9050000A5060000A906000039
:10017000AD060000B1060000B5060000B90600009B
:10018000BD060000C1060000C5060000A9840000ED
:10019000C9840000E9840000F9050000F9050000A9
:1001A000F9050000F9050000F9050000F905000057
:1001B000F9050000F9050000F9050000F905000047
:1001C000F9050000F9050000F9050000F905000037
:1001D000F9050000F9050000F9050000F905000027
:1003F000F9050000F9050000F9050000FFFFFFFF07
:10040000FFFFFFFFFFFFFFFFFFFFFFFFFEFFFFFFFD
:1004100010B5054C237833B9044B13B10448AFF33E
:1004200000800123237010BD800A0020000000001E
:10043000B06E01000C4B43B10C480D4910B5AFF341
:1004400000800C48036823B910BD0A48036833B91B
:100450007047094B002BF7D0BDE810401847064BFA
:10046000002BF5D0184700BF00000000B06E01005F
:10047000840A00206C0A002000000000154B002BAD
:1004800008BF134B9D46A3F5803A00218B460F46CB
:100490001348144A121A0BF0B3FB0F4B002B00D079
:1004A00098470E4B002B00D09847002000210400F5
:1004B0000D000D48002802D00C4803F0FFFA0AF0A6
:1004C0009DFF2000290003F03BFD03F0EDFA00BF83
:1004D00000000800000003200000000001400000B0
:1004E000800A0020F82D0020BD3A00000000000026
:1004F000EFF30980816911F8021CB9BB01B590E8DE
:100500000F10E047BDE800508CE80300264B93E84D
:100510000600914208BF704741B91EF0100F10D17C
:100520002249086820F0010008600AE02CE9F00F79
:100530001EF0100F08BF2CED108AC1F838C081F8EA
:1005400022E006F051FA184B93E806001A6092F880
:100550002210906B61F0FF0E1EF0100F08BFB0EC80
:10056000108AB0E8F00F80F30988704710B5104A80
:100570001368994206D852F821400FC8A047EFF3FC
:100580000984206010BD10B505F0CCFEBDE8104018
:10059000EFF3098CBAE710B505F060FEBDE8104036
:1005A000EFF3098CB2E700002400002034EF00E0F4
:1005B000BC65010072B609480949016009488047D5
:1005C00009490A4A0A4B9A42BEBF51F8040B42F845
:1005D000040BF8E762B607488047000008ED00E02A
:1005E00000000000A5750000D86E0100000000208A
:1005F000700A00207D040000FFF7FEBF3548004769
:1006000035480047354800473548004735480047DA
:1006100035480047354800473548004735480047CA
:1006200035480047354800473548004735480047BA
:1006300035480047354800473548004735480047AA
:10064000354800473548004735480047354800479A
:10065000354800473548004735480047354800478A
:10066000354800473548004735480047354800477A
:10067000354800473548004735480047354800476A
:10068000354800473548004735480047354800475A
:10069000354800473548004735480047354800474A
:1006A000354800473548004735480047344800473B
:1006B0003348004732480047314800473048004738
:1006C000304800473048004730480047304800472E
:1006D00030480047FD05000001060000F10400005D
:1006E0008705000097050000698300007D830000F6
:1006F00091830000A5830000B9830000CD83000032
:10070000E1830000F5830000098400001D840000DF
:100710003184000045840000598400006D8400008D
:100720008184000095840000F9050000B18E00006E
:10073000CD8E00005581000091810000F18F0000F6
:1007400035900000F9050000C1960000F905000091
:10075000ED960000F905000019970000F90500006A
:1007600045970000F9050000CD8100007197000059
:10077000F90500009D970000F9050000E98E0000D2
:100780000985000079900000F9050000F9050000D6
:10079000F9050000F905000000000000000000005D
:1007A00001F0FF01102A2BDB10F0070F08D010F822
:1007B000013B013A8B422DD010F0070F42B3F6D126
:1007C000F0B441EA012141EA014122F007047FF03F
:1007D00000070023F0E80256083C85EA010586EA96
:1007E000010685FA47F5A3FA87F586FA47F6A5FAD2
:1007F00087F68EB9EED1F0BC01F0FF0102F00702DE
:1008000032B110F8013B013A83EA010313B1F8D188
:100810000020704701387047002D06BF3546033869
:10082000073815F0010F07D1013015F4807F02BFA2
:10083000013015F4C03F0130F0BC0138704700BFF3
:10084000844641EA000313F003036DD1403A41D3DB
:1008500051F8043B40F8043B51F8043B40F8043B9A
:1008600051F8043B40F8043B51F8043B40F8043B8A
:1008700051F8043B40F8043B51F8043B40F8043B7A
:1008800051F8043B40F8043B51F8043B40F8043B6A
:1008900051F8043B40F8043B51F8043B40F8043B5A
:1008A00051F8043B40F8043B51F8043B40F8043B4A
:1008B00051F8043B40F8043B51F8043B40F8043B3A
:1008C00051F8043B40F8043B51F8043B40F8043B2A
:1008D000403ABDD2303211D351F8043B40F8043BCA
:1008E00051F8043B40F8043B51F8043B40F8043B0A
:1008F00051F8043B40F8043B103AEDD20C3205D3DA
:1009000051F8043B40F8043B043AF9D2043208D0D1
:10091000D2071CBF11F8013B00F8013B01D30B8843
:1009200003806046704700BF082A13D38B078DD021
:1009300010F003038AD0C3F10403D21ADB071CBFF3
:1009400011F8013B00F8013B80D331F8023B20F85D
:10095000023B7BE7043AD9D3013A11F8013B00F896
:10096000013BF9D20B7803704B7843708B7883701E
:10097000604670470000000000000000000000001A
:10098000A2EB0300704700BF02780B78012A28BF52
:100990009A42F5D16DE9044540EA0104CDE90267C8
:1009A0006FF0000C4FEA447212B380EA010414F0B5
:1009B000070F6AD100F0070420F0070004F00305D8
:1009C00021F007014FEAC505F0E8042314F0040FF5
:1009D000F1E804670CFA05F462EA040266EA040628
:1009E0000AD063EA0403624667EA0407664603E046
:1009F000F0E80423F1E8046782FA4CF582EA060481
:100A0000A4FA8CF46CBB83FA4CF583EA0705A5FACB
:100A10008CF595B950E9022351E9026782FA4CF549
:100A200082EA0604A4FA8CF483FA4CF583EA0705FB
:100A3000A5FA8CF52543DBD09CB92DBAB5FA85F41F
:100A400024F0070427FA04F1DDE9026723FA04F32E
:100A500003F0FF0001F0FF01FDE80445A0EB0100F9
:100A6000704724BAB4FA84F424F0070426FA04F197
:100A7000DDE9026722FA04F202F0FF0001F0FF0153
:100A8000FDE80445A0EB0100704714F0030F3CD1D2
:100A900010F0030428D150F8082B51F8083B82FAD3
:100AA0004CF582EA0305A5FA8CF55DB950F8042CE3
:100AB00051F8043C82FA4CF582EA0305A5FA8CF55C
:100AC000002DE8D02DBAB5FA85F424F0070423FAF6
:100AD00004F122FA04F202F0FF0001F0FF01FDE848
:100AE0000445A0EB010070474FEAC40420F0030066
:100AF00050F8082B21F0030151F8083B0CFA04F4DC
:100B000062EA040263EA0403C9E710F003041AD09E
:100B1000A1EB040120F00300E40750F8042B06D0F9
:100B20000FD28B785FFAA2F4E41A06D12BB1CB78FE
:100B30005FFAB2F4E41A00D11BB920465DF8104BFD
:100B4000704701F1040150F8042BCC0721F0030198
:100B500051F8043B48D824D222F07F4482FA4CF565
:100B600094EA1325A5FA8CF50AD165B951F8043B2E
:100B700084EA0204B4EB036F0ED150F8042BEBE7C8
:100B80004FEA132355E035F07F454DD10878FDE855
:100B90000445C0F1000070474FEA126203F0FF0302
:100BA00047E002EA1C4482FA4CF594EA1345A5FAA0
:100BB0008CF50AD165B951F8043B84EA0204B4EB20
:100BC000034F0CD150F8042BEBE74FEA134330E00E
:100BD00015EA1C4528D10B884FEA124229E04FEA5A
:100BE000124203EA1C4324E002F0FF0482FA4CF5AF
:100BF00094EA1365A5FA8CF50AD165B951F8043B5E
:100C000084EA0204B4EB032F09D150F8042BEBE77C
:100C10004FEA13630DE015F0FF0F05D10B684FEAA3
:100C2000122223F07F4304E04FF00000FDE804456A
:100C3000704712BA1BBA82FA4CF482EA0304A4FA8F
:100C40008CF5B5FA85F402FA04F203FA04F34FEADC
:100C50001260FDE80445A0EB13607047000000003F
:100C60000000000000000000000000000000000084
:100C70000000000000000000000000000000000074
:100C800090F800F06DE9024520F007016FF0000CCC
:100C900010F0070491F820F040F049804FF0000474
:100CA0006FF00700D1E9002391F840F000F108004F
:100CB00082FA4CF2A4FA8CF283FA4CF3A2FA8CF387
:100CC0004BBBD1E9022382FA4CF200F10800A4FAEE
:100CD0008CF283FA4CF3A2FA8CF3E3B9D1E9042342
:100CE00082FA4CF200F10800A4FA8CF283FA4CF379
:100CF000A2FA8CF37BB9D1E9062301F1200182FA33
:100D00004CF200F10800A4FA8CF283FA4CF3A2FA38
:100D10008CF3002BC6D0002A04BF04301A4612BA46
:100D2000B2FA82F2FDE8024500EBD2007047D1E949
:100D3000002304F00305C4F100004FEAC50514F0D8
:100D4000040F91F840F00CFA05F562EA05021CBFA9
:100D500063EA050362464FF00004A9E781F0004111
:100D600002E000BF83F0004330B54FEA41044FEA90
:100D7000430594EA050F08BF90EA020F1FBF54EA2B
:100D8000000C55EA020C7FEA645C7FEA655C00F0C7
:100D9000E2804FEA5454D4EB5555B8BF6D420CDD98
:100DA0002C4480EA020281EA030382EA000083EA1B
:100DB000010180EA020281EA0303362D88BF30BDBB
:100DC00011F0004F4FEA01314FF4801C4CEA113111
:100DD00002D0404261EB410113F0004F4FEA033370
:100DE0004CEA133302D0524263EB430394EA050FFB
:100DF00000F0A780A4F10104D5F1200E0DDB02FA6A
:100E00000EFC22FA05F2801841F1000103FA0EF2FD
:100E1000801843FA05F359410EE0A5F120050EF1C3
:100E2000200E012A03FA0EFC28BF4CF0020C43FAF4
:100E300005F3C01851EBE37101F0004507D54FF001
:100E4000000EDCF1000C7EEB00006EEB0101B1F551
:100E5000801F1BD3B1F5001F0CD349085FEA300097
:100E60004FEA3C0C04F101044FEA445212F5800FA2
:100E700080F09A80BCF1004F08BF5FEA500C50F13F
:100E8000000041EB045141EA050130BD5FEA4C0C22
:100E9000404141EB010111F4801FA4F10104E9D1AB
:100EA00091F0000F04BF01460020B1FA81F308BFA2
:100EB0002033A3F10B03B3F120020CDA0C3208DD6E
:100EC00002F1140CC2F10C0201FA0CF021FA02F149
:100ED0000CE002F11402D8BFC2F1200C01FA02F1B9
:100EE00020FA0CFCDCBF41EA0C019040E41AA2BFDE
:100EF00001EB0451294330BD6FEA04041F3C1CDAA6
:100F00000C340EDC04F11404C4F1200220FA04F0C5
:100F100001FA02F340EA030021FA04F345EA03016F
:100F200030BDC4F10C04C4F1200220FA02F001FA31
:100F300004F340EA0300294630BD21FA04F02946B3
:100F400030BD94F0000F83F4801306BF81F480114C
:100F50000134013D4EE77FEA645C18BF7FEA655CBF
:100F600029D094EA050F08BF90EA020F05D054EA91
:100F7000000C04BF1946104630BD91EA030F1EBF96
:100F80000021002030BD5FEA545C05D1400049419A
:100F900028BF41F0004130BD14F580043CBF01F58D
:100FA000801130BD01F0004545F0FE4141F4700173
:100FB0004FF0000030BD7FEA645C1ABF194610464E
:100FC0007FEA655C1CBF0B46024650EA013406BF4F
:100FD00052EA033591EA030F41F4002130BD00BF0E
:100FE00090F0000F04BF0021704730B54FF48064CB
:100FF00004F132044FF000054FF0000150E700BF4C
:1010000090F0000F04BF0021704730B54FF48064AA
:1010100004F1320410F0004548BF40424FF0000197
:101020003EE700BF42004FEAE2014FEA31014FEADA
:1010300002701FBF12F07F4393F07F4F81F0605129
:10104000704792F0000F14BF93F07F4F704730B598
:101050004FF4607401F0004521F0004120E700BF2B
:1010600050EA010208BF704730B54FF000050AE0B2
:1010700050EA010208BF704730B511F0004502D5B3
:10108000404261EB41014FF4806404F132045FEAB5
:10109000915C3FF4DCAE4FF003025FEADC0C18BF5A
:1010A00003325FEADC0C18BF033202EBDC02C2F150
:1010B000200300FA03FC20FA02F001FA03FE40EAE2
:1010C0000E0021FA02F11444C1E600BF70B54FF0E2
:1010D000FF0C4CF4E06C1CEA11541DBF1CEA1355C4
:1010E00094EA0C0F95EA0C0F00F0DEF82C4481EA2C
:1010F000030621EA4C5123EA4C5350EA013518BF4C
:1011000052EA033541F4801143F4801338D0A0FB38
:1011100002CE4FF00005E1FB02E506F00042E0FBE5
:1011200003E54FF00006E1FB03569CF0000F18BFEB
:101130004EF0010EA4F1FF04B6F5007F64F5407493
:1011400004D25FEA4E0E6D4146EB060642EAC62126
:1011500041EA55514FEAC52040EA5E504FEACE2E93
:10116000B4F1FD0C88BFBCF5E06F1ED8BEF1004F96
:1011700008BF5FEA500E50F1000041EB045170BD12
:1011800006F0004646EA010140EA020081EA030156
:10119000B4EB5C04C2BFD4EB0C0541EA045170BD52
:1011A00041F480114FF0000E013C00F3AB8014F1CC
:1011B000360FDEBF002001F0004170BDC4F1000415
:1011C000203C35DA0C341BDC04F11404C4F1200596
:1011D00000FA05F320FA04F001FA05F240EA0200F1
:1011E00001F0004221F0004110EBD37021FA04F627
:1011F00042EB06015EEA430E08BF20EAD37070BDE1
:10120000C4F10C04C4F1200500FA04F320FA05F03F
:1012100001FA04F240EA020001F0004110EBD37041
:1012200041F100015EEA430E08BF20EAD37070BDB1
:10123000C4F1200500FA05F24EEA020E20FA04F38A
:1012400001FA05F243EA020321FA04F001F0004139
:1012500021FA04F220EA020000EBD3705EEA430EAA
:1012600008BF20EAD37070BD94F0000F0FD101F0D9
:101270000046400041EB010111F4801F08BF013C12
:10128000F7D041EA060195F0000F18BF704703F050
:101290000046520043EB030313F4801F08BF013DD7
:1012A000F7D043EA0603704794EA0C0F0CEA135593
:1012B00018BF95EA0C0F0CD050EA410618BF52EA4D
:1012C0004306D1D181EA030101F000414FF0000053
:1012D00070BD50EA410606BF1046194652EA430661
:1012E00019D094EA0C0F02D150EA013613D195EAD5
:1012F0000C0F05D152EA03361CBF104619460AD11D
:1013000081EA030101F0004141F0FE4141F4700126
:101310004FF0000070BD41F0FE4141F4780170BD16
:1013200070B54FF0FF0C4CF4E06C1CEA11541DBF7B
:101330001CEA135594EA0C0F95EA0C0F00F0A7F87D
:10134000A4EB050481EA030E52EA03354FEA0131AA
:1013500000F088804FEA03334FF0805545EA1313BD
:1013600043EA12634FEA022245EA111545EA106585
:101370004FEA00260EF000419D4208BF964244F11C
:10138000FD0404F5407402D25B084FEA3202B61A3B
:1013900065EB03055B084FEA32024FF480104FF40F
:1013A000002CB6EB020E75EB030E22BFB61A754683
:1013B00040EA0C005B084FEA3202B6EB020E75EB16
:1013C000030E22BFB61A754640EA5C005B084FEA7E
:1013D0003202B6EB020E75EB030E22BFB61A75464B
:1013E00040EA9C005B084FEA3202B6EB020E75EB56
:1013F000030E22BFB61A754640EADC0055EA060E17
:1014000018D04FEA051545EA16754FEA06164FEA59
:10141000C30343EA52734FEAC2025FEA1C1CC0D105
:1014200011F4801F0BD141EA00014FF000004FF092
:10143000004CB6E711F4801F04BF01430020B4F153
:10144000FD0C88BFBCF5E06F3FF6AFAEB5EB030C0B
:1014500004BFB6EB020C5FEA500C50F1000041EB08
:10146000045170BD0EF0004E4EEA113114EB5C04D5
:10147000C2BFD4EB0C0541EA045170BD41F48011A8
:101480004FF0000E013C90E645EA060E8DE60CEAB0
:10149000135594EA0C0F08BF95EA0C0F3FF43BAFCD
:1014A00094EA0C0F0AD150EA01347FF434AF95EA84
:1014B0000C0F7FF425AF104619462CE795EA0C0F68
:1014C00006D152EA03353FF4FDAE1046194622E735
:1014D00050EA410618BF52EA43067FF4C5AE50EA0F
:1014E00041047FF40DAF52EA43057FF4EBAE12E7FF
:1014F0004FF0FF3C06E000BF4FF0010C02E000BFE0
:101500004FF0010C4DF804CD4FEA410C7FEA6C5CC2
:101510004FEA430C18BF7FEA6C5C1BD001B050EA65
:10152000410C0CBF52EA430C91EA030F02BF90EA50
:10153000020F0020704710F1000F91EA030F58BF0F
:10154000994208BF90422CBFD8176FEAE37040F071
:10155000010070474FEA410C7FEA6C5C02D150EA0F
:10156000013C07D14FEA430C7FEA6C5CD6D152EACA
:10157000033CD3D05DF8040B704700BF844610468F
:1015800062468C461946634600E000BF01B5FFF78E
:10159000B7FF002848BF10F1000F01BD4DF808ED5E
:1015A000FFF7F4FF0CBF012000205DF808FB00BF2F
:1015B0004DF808EDFFF7EAFF34BF012000205DF889
:1015C00008FB00BF4DF808EDFFF7E0FF94BF0120D6
:1015D00000205DF808FB00BF4DF808EDFFF7CEFFD7
:1015E00094BF012000205DF808FB00BF4DF808ED16
:1015F000FFF7C4FF34BF012000205DF808FB00BFE7
:101600004FEA410C7FEA6C5C02D150EA013C0AD1FE
:101610004FEA430C7FEA6C5C02D152EA033C02D1F0
:101620004FF0000070474FF0010070474FEA410251
:1016300012F5001215D211D56FF47873B3EB625224
:1016400012D94FEAC12343F0004343EA505311F04B
:10165000004F23FA02F018BF404270474FF00000DD
:10166000704750EA013005D111F0004008BF6FF01B
:10167000004070474FF00000704700BF4A0011D291
:1016800012F5001211D20DD56FF47873B3EB6252DC
:101690000ED44FEAC12343F0004343EA505323FAE8
:1016A00002F070474FF00000704750EA013002D15D
:1016B0004FF0FF3070474FF0000070474FEA410293
:1016C000B2F1E04324BFB3F5001CDCF1FE5C0DD9A0
:1016D00001F0004C4FEAC0024CEA5070B2F1004FEA
:1016E00040EB830008BF20F00100704711F0804FED
:1016F00021D113F13872BCBF01F00040704741F4B2
:1017000080114FEA5252C2F11802C2F1200C10FAB5
:101710000CF320FA02F018BF40F001004FEAC12399
:101720004FEAD32303FA0CFC40EA0C0023FA02F33D
:101730004FEA4303CCE77FEA625307D150EA013313
:101740001EBF4FF0FE4040F44000704701F00040E3
:1017500040F0FE4040F40000704700BF53B94AB962
:10176000002908BF00281CBF4FF0FF314FF0FF30A9
:1017700000F07AB9ADF1080C6DE904CE00F006F87E
:10178000DDF804E0DDE9022304B070472DE9F047FD
:101790008C460D460446089E002B51D18A421746BE
:1017A0006DD9B2FA82FEBEF1000F0BD0CEF1200C43
:1017B00001FA0EF520FA0CFC02FA0EF74CEA050CC1
:1017C00000FA0EF44FEA174A250CBCFBFAF81FFA90
:1017D00087F90AFB18CC45EA0C4508FB09F3AB4234
:1017E0000AD9ED1908F1FF3280F02381AB4240F2B3
:1017F0002081A8F102083D44ED1AA4B2B5FBFAF02D
:101800000AFB105544EA054400FB09F9A14509D932
:10181000E41900F1FF3380F00A81A14540F207810D
:1018200002383C44A4EB090440EA08400021002EA1
:1018300061D024FA0EF4002334607360BDE8F087B1
:101840008B4207D9002E54D0002186E8210008469B
:10185000BDE8F087B3FA83F1002940F08E80AB42F7
:1018600002D3824200F2FA80841A65EB030501205C
:10187000AC46002E3FD086E81010BDE8F08712B9C4
:101880000127B7FBF2F7B7FA87FEBEF1000F34D19C
:10189000EB1B3A0C1FFA87FC0121B3FBF2F8250C75
:1018A00002FB183345EA03450CFB08F3AB4207D9AA
:1018B000ED1908F1FF3002D2AB4200F2D180804630
:1018C000ED1AA3B2B5FBF2F002FB105543EA054452
:1018D0000CFB00FCA44507D9E41900F1FF3302D248
:1018E000A44500F2B8801846A4EB0C0440EA084076
:1018F0009DE731463046BDE8F087CEF1200405FA79
:101900000EF307FA0EF720FA04F83A0C25FA04F45D
:1019100048EA0308B4FBF2F14FEA184502FB114410
:101920001FFA87FC45EA044501FB0CF3AB4200FAC1
:101930000EF409D9ED1901F1FF3080F08A80AB4235
:1019400040F2878002393D44EB1A1FFA88F5B3FB59
:10195000F2F002FB103345EA034500FB0CF3AB4207
:1019600007D9ED1900F1FF386FD2AB426DD90238BB
:101970003D44EB1A40EA01418FE7C1F1200722FA0A
:1019800007F88B4005FA01F448EA030320FA07FE42
:101990004FEA134CFD404EEA040EB5FBFCF94FEA4A
:1019A0001E440CFB19551FFA83F844EA054509FB50
:1019B00008F4AC4202FA01F200FA01FA08D9ED1873
:1019C00009F1FF3043D2AC4241D9A9F102091D44CB
:1019D0002D1B1FFA8EFEB5FBFCF00CFB10554EEADA
:1019E000054400FB08F8A04507D9E41800F1FF35CD
:1019F00029D2A04527D902381C4440EA0940A4EB6B
:101A00000804A0FB02894C45C6464D4615D312D0AA
:101A100056B1BAEB0E0364EB050404FA07F7CB40AA
:101A20001F43CC40376074600021BDE8F087184642
:101A3000F8E69046E0E6C245EAD2B8EB020E69EB62
:101A400003050138E4E72846D7E7404691E7814699
:101A5000BEE7014678E702383C4445E7084608E718
:101A6000A8F102083D442BE7704700BF00B585B0E0
:101A700001900B468DF8033013468DF80230019B20
:101A800042F20A0242F20B01184600F02BF9019BC8
:101A9000C0221A749DF80230DB00DAB29DF80330E0
:101AA000DB01DBB21344DBB20133DBB28DF80F3064
:101AB0000DF10F031A462621019800F005F8019B4D
:101AC000184605B05DF804FB00B589B005900B46DB
:101AD00003928DF813309DF813308DF81C30039B62
:101AE0001B788DF81D300598059B1B7C194607AAAD
:101AF00000230093022300F043F90346184609B07F
:101B00005DF804FB00B589B00590039202930B4683
:101B10008DF813309DF813308DF81F300598059B14
:101B20001B7C19460DF11F0201230093012300F0D5
:101B300027F90598059B1B7C194600230093029BFF
:101B4000039A00F04EF900BF09B05DF804FB00B540
:101B500085B001900DF10F02012326210198FFF7B6
:101B6000D1FF9DF80F305BB2DBB2DB09DBB2184668
:101B700005B05DF804FB10B586B0019003AA0323FD
:101B800001210198FFF7BEFF0198FFF7E0FF034630
:101B9000002B13D09DF80C301A069DF80D301B0455
:101BA0001A439DF80E301B0213431B0C1846FFF717
:101BB00017FA03460C46CDE9043411E09DF80C30C9
:101BC0001A049DF80D301B0213439DF80E20134399
:101BD0009B091846FFF704FA03460C46CDE9043486
:101BE000DDE904341846214606B010BD82B00190EC
:101BF0000091009B184602B07047000008B5044BE6
:101C00001B684FF0FF31184604F0B6F900BF08BD5D
:101C1000802C002008B5034B1B68184604F0E0F93F
:101C200000BF08BD802C002000B583B00190019852
:101C300000F006F80346184603B05DF804FB000008
:101C400010B582B00190019B1B68002B18D1FFF7E3
:101C5000D5FF019B1B68002B10D1019B0433194653
:101C60003020FFF7C3FF0446002C04D0204602F0CA
:101C700047F8224600E02246019B1A60FFF7CAFFA0
:101C8000019B1A68019B04339A4204D05B220449E9
:101C9000044801F095FA019B1B68184602B010BD7C
:101CA000C0490100E849010000B583B00190054A30
:101CB000019B1A60019800F0E7F8019B184603B0F9
:101CC0005DF804FB3863010000B583B00190019812
:101CD000FFF7EAFF019801F043FF019B184603B0AC
:101CE0005DF804FB00B585B0039002910192039862
:101CF00000F0D0F80D4A039B1A60039B00225A6043
:101D0000039B00221A72039B094ADA60039B043387
:101D1000019A0299184608F079F9064A039B136064
:101D2000039B184605B05DF804FB00BF3863010053
:101D3000A08601009C0A002000B583B00190019BA1
:101D40001B681B68019898470C4B1A68019B9A42C4
:101D50000AD0019B1A1D019BDB681946104608F04A
:101D6000F1F9064A019B1360019B1B6804331B6851
:101D70000198984700BF03B05DF804FB9C0A00205F
:101D800000B589B00590049103920293059B1B68EE
:101D90001B68059898470598FFF7CEFF9DF82830F7
:101DA000002B01D0002300E001230793059B181DA1
:101DB000079B0093029B039A049908F031FA06905E
:101DC000059B1B6804331B6805989847029A069B7D
:101DD0009A4214BF01230023DBB2184609B05DF814
:101DE00004FB00B589B00590049103920293059B12
:101DF0001B681B68059898470598FFF79DFF9DF89D
:101E00002830002B01D0002300E001230793059B1D
:101E1000181D079B0093029B039A049908F0B0F9E0
:101E20000690059B1B6804331B6805989847029A27
:101E3000069B9A4214BF01230023DBB2184609B067
:101E40005DF804FB00B583B001900648FFF7ECFE97
:101E500003464FF0FF31184601F0A2FF00BF03B068
:101E60005DF804FBA00A002000B583B0019005488E
:101E7000FFF7DAFE0346184601F0A1FF00BF03B0EA
:101E80005DF804FBA00A002082B00190019B184677
:101E900002B0704782B00190019B184602B07047B3
:101EA00000B583B001900091009B002B03D1019BF2
:101EB0000022DA6004E06B461946019800F03CF815
:101EC000019B184603B05DF804FB00B583B0019098
:101ED000019BDB68002B04D0019BDB689B680198A9
:101EE0009847019B184603B05DF804FB00B583B02A
:101EF00001900091019A009B9A420ED00198FFF741
:101F0000E4FF019B19461020FFF770FE0346002BEB
:101F100003D00099184600F027F8019B184603B03B
:101F20005DF804FB00B583B00190019800F034F82F
:101F300003B05DF804FB000000B583B00190009190
:101F4000019B19460420FFF751FE0346002B02D0E7
:101F5000009A12681A60019B024ADA6000BF03B05F
:101F60005DF804FB4863010000B583B00190009167
:101F7000009BDB68002B05D0009BDB685B68009949
:101F800001989847009BDA68019BDA60019B18462C
:101F900003B05DF804FB000000B583B00190019B25
:101FA000DB68002B05D140F20E220649064801F0FD
:101FB00007F9019BDB681B680198984703B05DF83F
:101FC00004FB00BFFC490100204A010000B583B0BA
:101FD0000190019B1B68984703B05DF804FB00B5B6
:101FE00083B001900091019B19460420FFF7FEFD8C
:101FF0000346002B02D0009A12681A6000BF03B09B
:102000005DF804FB82B0019000BF02B07047000091
:1020100010B582B00190164A019B1A60019B03F52E
:102020008473002B0ED0019B03F5847303F120040D
:10203000019B03F58473A34204D0103C2046FFF7B4
:1020400044FFF5E7019B3833184600F02DF8019B5B
:102050002833184600F028F8019B0433184600F096
:102060001DF8019800F014F8019B184602B010BD4D
:10207000F463010000B583B001900198FFF7C8FF39
:10208000019801F06DFD019B184603B05DF804FB5B
:1020900082B00190019B184602B0704782B0019057
:1020A000019B184602B0704700B583B00190019BB8
:1020B000DB68002B04D0019BDB689B680198984784
:1020C000019B184603B05DF804FB00B583B0019096
:1020D0000091009B002B03D1019B0022DA6004E0F9
:1020E0006B461946019800F005F8019B184603B0AD
:1020F0005DF804FB00B583B001900091019B194687
:102100000420FFF773FD0346002B02D0009A1268EB
:102110001A60019B024ADA6000BF03B05DF804FB5D
:102120005463010000B583B001900091019B1B68CE
:102130000098984703B05DF804FB00B583B00190A8
:102140000091019B19460420FFF750FD0346002B28
:1021500002D0009A12681A6000BF03B05DF804FB59
:1021600082B0019000BF02B0704700B585B0039007
:1021700002910192039B1B6810331B68019A02991C
:10218000039898470346184605B05DF804FB00B570
:1021900083B00190019B1B6818331B680198984716
:1021A0000346184603B05DF804FB00B583B0019008
:1021B000019B1B6828331B68019898470346184603
:1021C00003B05DF804FB82B001900B468DF803303C
:1021D0004FF0FF33184602B0704782B001900B46B3
:1021E000ADF802301123184602B0704782B001905A
:1021F000009100BF02B0704700B585B00390029116
:10220000019200930398069B019A029900F0C0F88E
:10221000039B03F596730099184600F061FE03983E
:1022200000F062F80A4A039B1A600A4A039BC3F84B
:102230002C21094A039BC3F83021039B03F5A273A9
:10224000184601F05DFD039B184605B05DF804FBE0
:102250006863010088630100E463010000B583B096
:102260000190019B184600F044F90346184603B05C
:102270005DF804FBA0F59670FFF7F0BF00B583B0E2
:1022800001900091019B0099184600F03FF9034628
:10229000184603B05DF804FBA0F59670FFF7EEBF9B
:1022A00000B583B00190019B03F5A2734FF0FF319D
:1022B000184601F075FD00BF03B05DF804FBA0F502
:1022C0009670FFF7EDBF00B583B00190019B03F559
:1022D000A273184601F073FD00BF03B05DF804FB64
:1022E000A0F59670FFF7EFBF82B00190019B1846F2
:1022F00002B0704782B00190019B184602B070474F
:1023000000B583B00190114A019B1A60104A019BED
:10231000C3F82C210F4A019BC3F83021019B03F520
:10232000A273184601F058FD0198FFF7E3FF019BE7
:1023300003F59673184600F00FFE019B1846FFF751
:1023400067FE019B184603B05DF804FB686301005B
:1023500088630100E4630100A0F59670D0E7A0F562
:102360009870CDE700B583B001900198FFF7C8FFE2
:10237000019801F0F5FB019B184603B05DF804FBE2
:10238000A0F59670EEE7A0F59870EBE700BF7047F8
:1023900030B58BB00390029101920093039800F046
:1023A000CEF8374A039B1A60039B043303991846FF
:1023B00000F0CBF8039B283300211846FFF785FE79
:1023C000039B383300211846FFF77FFE039B002252
:1023D00083F84820039B002283F84920039B4C3359
:1023E000BC220021184609F00BFC039B03F5847303
:1023F00001241D46002C06DB00212846FFF750FD76
:102400001035013CF6E7039B009AC3F8282100230E
:102410000993099B012B17D8099B1B0103F58473B2
:10242000039AD41805AB17491846FFF739FD05ABD9
:1024300019462046FFF75AFD05AB1846FFF745FD44
:10244000099B01330993E4E7039B4C33019A0299FA
:10245000184607F0F7F9039B03F14C02039BD3F8EE
:1024600028311946104607F087FA039B4C33039A2C
:102470000549184607F09EFA039B18460BB030BD7D
:10248000F46301008D230000C724000000B583B071
:1024900001900091019B1B681B6801989847019B64
:1024A0004C330099184607F067FA019B009AC3F86D
:1024B0002821019B1B6804331B680198984700BFC3
:1024C00003B05DF804FB00B585B001900B468DF8B4
:1024D0000330019B03939DF803301B0103F58473C4
:1024E000039A13441846FFF71DFD00BF05B05DF8C1
:1024F00004FB00B583B00190019B4C33184607F0F4
:102500006DFA0346184603B05DF804FB00B583B0CE
:1025100001900091019B4C330099184607F07CFA1A
:10252000009B184603B05DF804FB82B0019000BF29
:1025300002B0704782B0019000BF02B0704782B015
:102540000190019B184602B0704700B587B0039018
:10255000029100230493002305930023009304AB0E
:102560000CCB0299039800F005F8039B184607B0BE
:102570005DF804FB84B003900291694681E80C0089
:10258000039B04336A4692E8030083E80300039B3D
:102590000D4ADA60039B48F207021A61049A039B12
:1025A0009A61029A039B5A61039B04331A46039B68
:1025B000DA61064A039B1A62BFF36F8FBFF34F8F36
:1025C00000BF04B0704700BF01A090E8D125000013
:1025D00000B585B0039002910192039B002B26D099
:1025E000019B1B68002B05D1019B5B6803F0010375
:1025F000002B1CD0019B5B6803F00103002B02D170
:10260000019B1B680AE0019B5B685B101A46039BF9
:1026100013441B68019A126813441B68019A52689C
:1026200052101146039A0A4402991046984700BF77
:1026300005B05DF804FB000000B583B00190054AC9
:10264000019B1A60019800F045F8019B184603B001
:102650005DF804FB3864010000B583B00190019877
:10266000FFF7EAFF019801F07BFA019B184603B0DF
:102670005DF804FB00B583B00190019B1B6810332B
:102680001B6801220021019898470346184603B0B1
:102690005DF804FB00B583B00190019B1B6810330B
:1026A0001B68002200210198984700BF03B05DF825
:1026B00004FB000000B583B00190019800F010F811
:1026C000034A019B1A60019B184603B05DF804FBA6
:1026D0003864010082B00190019B184602B0704737
:1026E00082B00190019B184602B0704700B585B0DA
:1026F00003900291009313468DF8073002990398D6
:1027000007F0F0FB029BB3F1FF3F0DD00099039857
:1027100007F052FC0121039807F00AFC9DF80730EE
:102720001946039807F0F2FB00BF05B05DF804FB03
:1027300000B583B00190009100220099019800F04B
:1027400004F800BF03B05DF804FB00B585B003904A
:1027500002910192019B002202990398FFF7C6FFA4
:1027600000BF05B05DF804FB00B583B00190009197
:10277000019BB3F1FF3F1CD012E0009B1A68019B44
:102780009A420AD1009B9B681946019807F0F0FD18
:102790000021019807F022FE0CE0009B0C3300930F
:1027A000009B1B68B3F1FF3FE7D1044800F02CFE0B
:1027B00000E000BF03B05DF804FB00BF284A010041
:1027C00000B583B001900091019A009B9A4201D11B
:1027D000019B10E0019BB3F1FF3F01D1009B0AE098
:1027E000009BB3F1FF3F01D1019B04E0044800F0DE
:1027F0000BFE4FF0FF33184603B05DF804FB00BF3B
:102800003C4A010082B0019000910AE0009B1A68E6
:10281000019B9A4202D1009B5B6809E0009B0C334C
:102820000093009B1B68B3F1FF3FEFD14FF0FF33E4
:10283000184602B07047000000B585B001900091C5
:102840004FF0FF330393019BB3F1FF3F02D14FF0F1
:10285000FF330CE000990198FFF7D4FF0390039B2E
:10286000B3F1FF3F02D1044800F0CEFD039B1846B0
:1028700005B05DF804FB00BF504A010010B489B0F8
:10288000CDE902010192029A019B9A428CBF012379
:1028900000238DF81730DDE902344FF000014FF0CE
:1028A000FF3201EA030102EA0402019B4FF0000437
:1028B00043EA010344EA0204CDE906349DF81730E7
:1028C000002B06D0DDE90634003344F10104CDE9E4
:1028D0000634DDE906341846214609B05DF8044B9C
:1028E000704770B582B00190019B5E68019B5B6888
:1028F000D3E90245019B1B685B68984703461A466B
:1029000020462946FFF7BAFF03460C46C6E90234C3
:1029100000BF02B070BD10B588B001900198FFF7FC
:10292000E0FF4FF0E0430793019B5B685B68002B7F
:102930002AD0019B5B68D3E90234CDE90434019BC2
:102940005B685B68D3E90034CDE90234DDE902124B
:10295000DDE90434A24208BF994202D20023079362
:1029600012E0DDE90212DDE90434CB1A62EB040463
:102970006FF010414FF00002A24208BF994203D30A
:10298000029A049BD31A0793019B1B681A69019B47
:102990005B68D3E902341946079B0B4418469047FD
:1029A00000BF08B010BD10B584B00190019B1B683A
:1029B000DB689847019B5B685B68002B27D0019818
:1029C000FFF78FFF019B5B685B68D3E90034019AD6
:1029D0005268D2E90212A24208BF994219D3019B60
:1029E0005B685B680393019B5B68019A526852685D
:1029F000D2685A60019B5B681B68002BDAD0019B90
:102A00005B681B68039A926810469847D2E700BF3C
:102A100000E000BF0198FFF77EFF00BF04B010BDCB
:102A200008B50248FFF7BFFF00BF08BD18640100EA
:102A300000B585B00390029113468DF807300398D6
:102A400000F0E9F8174A039B1A60039B00225A60C2
:102A5000039B029A9A60039B9DF807201A73124801
:102A6000FFF7E2F803464FF0FF31184601F098F9FE
:102A7000029B002B07D00D4B1A68039B5A600B4A30
:102A8000039B136002E0039B00225A600648FFF795
:102A9000CBF80346184601F092F9039B184605B09F
:102AA0005DF804FB28640100F40A0020F00A00200D
:102AB00000B585B00190244A019B1A602348FFF7B6
:102AC000B3F803464FF0FF31184601F069F9019B56
:102AD0009B68002B19D01E4B1A68019B9A4204D1A7
:102AE000019B5B681A4A13600FE0194B1B68039344
:102AF000039B5A68019B9A4203D0039B5B68039334
:102B0000F6E7019B5A68039B5A601048FFF78CF860
:102B10000346184601F053F9019800F075F8034692
:102B2000002B0CBF01230023DBB2002B04D0019B40
:102B3000043B184600F084FC019800F072F8019BF9
:102B4000184605B05DF804FB28640100F40A002073
:102B5000F00A002000B583B001900198FFF7A8FFAC
:102B6000019800F0FDFF019B184603B05DF804FBDF
:102B700000B585B0019000912148FFF755F8034654
:102B80004FF0FF31184601F00BF91E4B1B68039301
:102B9000039B002B28D0039B9B68002B14D0039B26
:102BA0009B68009A0199184609F042FC0346002BE5
:102BB0000AD1039B9B681846FEF762F80246009B09
:102BC0009A4201D1012300E00023002B08D00C48D9
:102BD000FFF72AF80346184601F0F1F8039B0BE0D3
:102BE000039B5B680393D3E70548FFF71DF8034693
:102BF000184601F0E4F80023184605B05DF804FB20
:102C0000F40A0020F00A002082B00190019B1B7B97
:102C1000184602B0704782B00190019B184602B07E
:102C2000704782B00190019B184602B0704782B095
:102C300001900023184602B0704782B00190002333
:102C4000184602B0704700B585B00190019B1B6823
:102C500010331B6801220021019898470390039BC1
:102C6000002B01DA039B11E0019B1B6810331B68EA
:102C700002220021019898470290019B1B681033A3
:102C80001B680022039901989847029B184605B0DB
:102C90005DF804FB00B583B00190009100990198A4
:102CA00000F01EFF0346184603B05DF804FB00B5B4
:102CB00087B001900091019B00221A60019B0022C5
:102CC0005A60009B1B782F2B31D1009B01331B785E
:102CD000002B2CD0009B01330493019B049A1A60B3
:102CE00000230593019B1B681B788DF80F309DF81E
:102CF0000F302F2B05D1019B1B685A1C019B1A60BA
:102D00000DE09DF80F30002B08D0059B0133059393
:102D1000019B1B685A1C019B1A60E3E700BF059BDF
:102D200019460498FFF724FF0246019B5A60019B55
:102D3000184607B05DF804FB82B00190019B1B6848
:102D4000184602B0704700B583B00190019B5B68E4
:102D5000002B01D100230AE0019B5B681846FFF7B6
:102D600053FF0346012B0CBF01230023DBB218469F
:102D700003B05DF804FB00B583B001900198FFF744
:102D8000E2FF0346002B09D0019B5B68002B03D0B8
:102D9000019B5B68043B02E0002300E0002318462F
:102DA00003B05DF804FB00B583B00190019B5B6844
:102DB000002B01D100230AE0019B5B681846FFF756
:102DC00023FF0346002B0CBF01230023DBB2184670
:102DD00003B05DF804FB00B583B001900198FFF7E4
:102DE000E2FF0346002B09D0019B5B68002B03D058
:102DF000019B5B68043B02E0002300E000231846CF
:102E000003B05DF804FB82B00190019B5B68002B6E
:102E100014BF01230023DBB2184602B07047000044
:102E200000B583B001900091019B1846FFF742FC6A
:102E3000019B0433002200991846FFF7F9FD019821
:102E400000F066F9054A019B1A60054A019B5A6029
:102E5000019B184603B05DF804FB00BFF06401005D
:102E60003C65010000B583B001900B4A019B1A60DC
:102E70000A4A019B5A60019800F050F9019B043303
:102E80001846FFF715FE019B1846FFF7D5FB019B7F
:102E9000184603B05DF804FBF06401003C650100D6
:102EA000A0F10400DEE700BF00B583B001900198F7
:102EB000FFF7D8FF019800F053FE019B184603B0BE
:102EC0005DF804FBA0F10400EEE782B0019000BFC2
:102ED00002B0704782B0019000BF02B0704700009E
:102EE00000B583B001900091019B00991846FFF74F
:102EF00097FF019800F018F9134A019B1A60134AD2
:102F0000019B5A60019B00225A61019B104918469F
:102F1000FFF7C0FE0246019B5A61019B5B69002BD3
:102F200005D0019B5B69184600F0CEFD07E007F075
:102F300023FB03461B681946064800F065FA019B0F
:102F4000184603B05DF804FB84640100E0640100EE
:102F5000904A0100944A010000B583B001900B4AE9
:102F6000019B1A600A4A019B5A60019B5B691846E3
:102F700007F06AFB019800F0DDF8019B1846FFF7A7
:102F800071FF019B184603B05DF804FB84640100E7
:102F9000E064010082B001900023184602B070473F
:102FA00000B587B0039002910192029B0593059AA8
:102FB000019B13440493039B1B684C331B680398C9
:102FC0009847059A049B9A4215D0039B1B6844338B
:102FD0001A68059B591C05911B7819460398904760
:102FE0000346B3F1FF3F0CBF01230023DBB2002BEC
:102FF00000D1E6E700BF039B1B6850331B680398B2
:103000009847059A029BD31A184607B05DF804FB4F
:1030100000B589B0039002910192029B0793079A31
:10302000019B13440693039B1B684C331B68039856
:103030009847079A069B9A4212D0039B1B68483315
:103040001B68039898470590059BB3F1FF3F06D096
:10305000079B5A1C0792059AD2B21A70E9E700BF83
:10306000039B1B6850331B6803989847079A029B81
:10307000D31A184609B05DF804FB84B0039002919E
:1030800001920023184604B0704782B001900023DB
:10309000184602B0704782B0019000BF02B070477E
:1030A00082B001900023184602B0704782B00190B0
:1030B0000023184602B0704782B0019000231846E2
:1030C00002B070470EB400B584B00190019B1B683C
:1030D0004C331B680198984706AB0293019B5B69D0
:1030E000184607F083FB019B5B69029A0599184615
:1030F0000DF0D8FC0390019B1B6850331B680198AE
:103100009847039B184604B05DF804EB03B0704782
:1031100082B00190019B184602B0704782B00190C6
:10312000019B184602B0704782B00190019B18467F
:1031300002B0704782B00190019B184602B0704700
:1031400000B585B001900091002303930099019888
:1031500008F02CFA0390039B184605B05DF804FBB9
:1031600000B587B003900291019200230593019A64
:103170000299039808F0A8FD0590059B184607B032
:103180005DF804FB00B583B00190009100990198AF
:1031900007F0DCFC00BF03B05DF804FB00B587B0AE
:1031A00003900291019200230593019A02990398DA
:1031B00007F0B2F90590059B184607B05DF804FBCF
:1031C00000B585B003900291019200F08DF8019B4B
:1031D000029A0399044800F024F800F007F800BFB1
:1031E00005B05DF804FB00BFB44A010000B583B030
:1031F00000F07AF801AB42F208011846FFF798FA9E
:1032000001AB0121184606F0D7FE962000F034FDF0
:1032100001AB0021184606F0CFFE962000F02CFDF1
:10322000EEE70FB400B583B005AB019301990498A4
:1032300000F006F800BF03B05DF804EB04B070477F
:1032400000B5A5B00190009100F04EF802A8009BD7
:10325000019A80210DF0AEFC2290229B002B1CDDF8
:10326000114B1B68002B06D141F2100241F21101F3
:103270000E4806F0E7FA002323930AE002AA239BF4
:1032800013441B781946094806F0C6FB239B0133FB
:103290002393239A229B9A42F0DB00F071F800BF3F
:1032A00025B05DF804FB00BF94120020142D00200F
:1032B00082B0EFF310830193019B03F00103002B15
:1032C0000CBF01230023DBB2184602B0704782B066
:1032D000EFF305830193019B002B14BF012300230F
:1032E000DBB2184602B0704700B583B0FFF7E0FFCD
:1032F0000346002B14BF01230023DBB283F001033C
:10330000DBB28DF807309DF8073003F001038DF82C
:10331000073072B6154B1B68002B03D1144A9DF879
:1033200007301370114B1B68B3F1FF3F04D14522E6
:1033300010491148FFF744FF0C4B1B68002B0BD0C2
:103340009DF8073083F00103DBB2002B04D0492243
:1033500008490A48FFF734FF044B1B680133034A4E
:10336000136000BF03B05DF804FB00BF280B002012
:103370002C0B0020E84A01000C4B0100344B0100EB
:1033800000B583B01C4B1B68002B30D0FFF790FFBB
:103390000346002B14BF01230023DBB283F001039B
:1033A000DBB28DF807309DF8073003F001038DF88C
:1033B00007309DF8073083F00103DBB2002B04D007
:1033C0005A220E490E48FFF7FBFE0B4B1B68013BD0
:1033D000094A1360084B1B68002B08D1094B1B7866
:1033E000DBB283F00103DBB2002B00D062B600BF7A
:1033F00003B05DF804FB00BF280B0020E84A010081
:10340000344B01002C0B00200FB400B583B00B4BE4
:103410001B78002B0BD1094B01221A7005AB0193CD
:1034200001990498FFF70CFF012000F03DFB00BF5D
:1034300003B05DF804EB04B0704700BF2D0B002013
:1034400000B585B001901448FEF7EEFB03464FF03F
:10345000FF31184600F0A4FC00230393039B3F2B8D
:103460000FD80E4A039B52F82320019B9A4204D1A5
:103470000A4A039B002142F82310039B0133039364
:10348000ECE70548FEF7D0FB0346184600F097FC32
:1034900000BF05B05DF804FB380C0020380B00209D
:1034A00008B5094B1B68002B0CD141F2100241F208
:1034B0001101064806F0C6F94FF41651034806F00C
:1034C0005BFA00E000BF08BD94120020142D00201C
:1034D00000B583B00190009107F04EF80246019BC1
:1034E0005B421360054A009B002142F823104FF015
:1034F000FF33184603B05DF804FB00BF380B002013
:1035000084B00190019B0393039B23F480330393C6
:10351000039B184604B0704710B58AB00190009123
:1035200067490198FDF730FA0346002B0CBF0123D1
:103530000023DBB2002B03D0FFF7B2FF0023BBE078
:1035400060490198FDF720FA0346002B0CBF0123C8
:103550000023DBB2002B03D0FFF7A2FF0123ABE077
:1035600059490198FDF710FA0346002B0CBF0123BF
:103570000023DBB2002B03D0FFF792FF02239BE076
:103580005248FEF751FB03464FF0FF31184600F05A
:1035900007FC00230993099B3F2B0AD84C4A099B3F
:1035A00052F82330002B03D0099B01330993F2E733
:1035B00000BF099B3F2B0ED906F0DEFF0246182301
:1035C00013604248FEF730FB0346184600F0F7FB55
:1035D0004FF0FF3370E03E4A099B4FF0FF3142F855
:1035E00023103A48FEF720FB0346184600F0E7FB9D
:1035F00000230593019B1B783A2B08D104AB1A4694
:103600003449019808F0A2FE049B05934DE002ABFB
:1036100001991846FFF74BFB02AB1846FFF7F3FB87
:10362000034683F00103DBB2002B06D009996FF04B
:103630000100FFF74DFF03463EE002AB1846FFF7DF
:10364000B2FB0346002B06D002AB1846FFF7C3FBC4
:103650000346059329E002AB1846FFF78CFB089060
:10366000089B002B06D109996FF00100FFF730FF8E
:10367000034621E00098FFF743FF0790089B1B6873
:1036800008331C6802AB1846FFF756FB024605A933
:10369000079B0898A0470690069B002B05D0099928
:1036A0000698FFF715FF034606E0059A0849099BAF
:1036B00041F82320099B033318460AB010BD00BF10
:1036C000446501004C65010054650100380C002080
:1036D000380B0020484B010000B585B00190019BDC
:1036E000022B01DC00232AE0019B033B164A52F81F
:1036F00023300393019B033B134A002142F823101C
:10370000039B002B07D106F037FF02460923136005
:103710004FF0FF3313E0039B1B6814331B680398BF
:1037200098470290029B002B08DA06F025FF02461C
:10373000029B5B4213604FF0FF3300E0002318460A
:1037400005B05DF804FB00BF380B002000B589B060
:103750000390029101920093FFF7B9FD0346002BFD
:1037600007D1FFF7A5FD034683F00103DBB2002B71
:1037700001D0012300E00023002B02D02448FFF7F2
:1037800043FE039B022B1ADC224B1B68002B01D14A
:10379000FFF786FE00230693069A019B9A420BD2FE
:1037A000029A069B13441B7819461B4806F034F90D
:1037B000069B01330693EFE7019B079322E0039BEF
:1037C000033B164A52F823300593059B002B07D183
:1037D00006F0D2FE0246092313604FF0FF3312E0D9
:1037E000059B1B680C331B68019A02990598984742
:1037F0000790079B002B05DA06F0BEFE0246079BEA
:103800005B421360079B184609B05DF804FB00BFDC
:103810004C4B010094120020142D0020380B002086
:1038200000B587B00390029101920093FFF74FFD1E
:103830000346002B07D1FFF73BFD034683F001034E
:10384000DBB2002B01D0012300E00023002B02D0CB
:103850001E48FFF7D9FD039B022B0FDC1C4B1B6896
:10386000002B01D1FFF71CFE1A4806F0B7F80346FB
:10387000DAB2029B1A700123059322E0039B033BFB
:10388000154A52F823300493049B002B07D106F00D
:1038900073FE0246092313604FF0FF3312E0049BCE
:1038A0001B6808331B68019A029904989847059091
:1038B000059B002B05DA06F05FFE0246059B5B4286
:1038C0001360059B184607B05DF804FB884B0100A8
:1038D00094120020142D0020380B002000B585B074
:1038E0000190019B022B01DC012322E0019B033BA1
:1038F000124A52F823300393039B002B06D106F0A3
:103900003BFE024609231360002312E0039B1B6861
:103910001C331B68039898470290029B002B07DA20
:1039200006F02AFE0246029B5B421360002300E081
:10393000029B184605B05DF804FB00BF380B002061
:1039400000B587B0039002910192039B022B07DC24
:1039500006F012FE02461D2313604FF0FF3326E0EF
:10396000039B033B144A52F823300593059B002B1D
:1039700007D106F001FE0246092313604FF0FF3322
:1039800015E0059B1B6810331B68019A0299059886
:1039900098470490049B002B08DA06F0EDFD0246E0
:1039A000049B5B4213604FF0FF3300E0049B18461A
:1039B00007B05DF804FB00BF380B002000B583B0F2
:1039C00001900091019B022B05DC009B4FF40052FB
:1039D0005A60002306E006F0CFFD0246092313607B
:1039E0004FF0FF33184603B05DF804FB08B5012023
:1039F00000F05AF810B485B001901B4B1B6803937C
:103A0000194B1A68019B13440293EFF308831C4679
:103A100023461A46029B9A4294BF01230023DBB23D
:103A2000002B05D0114B0C221A604FF0FF3315E02C
:103A30000F4B1B68002B0DD00E4B1A680C4B1B68EC
:103A40001A44029B9A4205D8084B0C221A604FF088
:103A5000FF3303E0044A029B1360039B184605B042
:103A60005DF8044B704700BF00000020F42D0020DB
:103A7000340B0020300B002000B583B00190094BBF
:103A80001B689B68184606F0B1FE064B1B68DB6896
:103A9000184606F0ABFE019B002B01D0FFF7A6FBFA
:103AA000FEE700BFC400002000B583B0019001987C
:103AB000FFF7E2FF00BF03B05DF804FB82B00190A6
:103AC0000123184602B0704700B583B00190002171
:103AD000019808F045FB00BF03B05DF804FB00004F
:103AE00000B587B00190009102AB019A11491846C8
:103AF00008F006FC02AB0099184606F0CFFF0590CF
:103B0000059B002B0AD0019B1B681C331B68019886
:103B100098470346002B01D0012300E00023002B2F
:103B200002D00598FFF7D0FF059B184607B05DF857
:103B300004FB00BF484B010000B583B00190019821
:103B400000F06CFA00BF03B05DF804FB00B583B071
:103B50000190019800F072FA00BF03B05DF804FB19
:103B600000B583B00190019B002B02D0019807F0B3
:103B700015FD00BF03B05DF804FB000082B00190AA
:103B8000019B0633052B1BD801A252F823F000BF7E
:103B9000BD3B0000B93B0000B53B0000B13B00005D
:103BA000AD3B0000A93B0000074B0AE0074B08E0D3
:103BB000074B06E0074B04E0074B02E0074B00E031
:103BC000074B184602B07047A04C0100B84C0100EA
:103BD000EC4C0100044D0100144D01002C4D01007E
:103BE000484D010000B583B001900198FFF7C6FF72
:103BF00003461A4601990348FFF706FC00BF03B0CD
:103C00005DF804FB504D010000B583B001900091B8
:103C10000098FFF7B3FF0346009A01990348FFF7A6
:103C2000F3FB00BF03B05DF804FB00BF684D01006B
:103C300000B583B0019000910098FFF79FFF034605
:103C4000009A01990348FFF7DFFB00BF03B05DF85E
:103C500004FB00BFB44D010000B583B0019000919A
:103C6000009A01990348FFF7CFFB00BF03B05DF84E
:103C700004FB00BF004E010000B583B00190019B22
:103C80004FF47A7202FB03F3184600F005F800BF08
:103C900003B05DF804FB000000B585B0019006F0AC
:103CA000B1F80390019B154A82FB03129211DB17B6
:103CB000D31A0293029B002B06DDFFF7F9FA0346A5
:103CC000002B01D0012300E00023002B03D0029B36
:103CD000184600F09DF806F095F80246039BD21AAC
:103CE000019B9A4234BF01230023DBB2002B00D09A
:103CF000F1E700BF05B05DF804FB00BFD34D6210D3
:103D000000B583B00190019800F076F80021019889
:103D100000F006F8019B184603B05DF804FB0000B4
:103D200000B583B001900091019B14331C22002147
:103D3000184607F065FF019B043310220021184646
:103D400007F05EFF009B002B01D0009B00E0114BB1
:103D5000019A5360019B03F11402019BDA60019BFD
:103D60001C221A61019B0B229A60019B04331846A6
:103D700002F0C4F80246019B1A60019B1B68002BED
:103D800004D1312204490548FFF71AFA00BF03B0F5
:103D90005DF804FB584E0100744E0100904E010086
:103DA00000B583B001900091019B1B6800991846F3
:103DB00002F0E2F80346184603B05DF804FB00B5D4
:103DC00083B00190019B1B68184602F009F9034675
:103DD000184603B05DF804FB00B583B00190019B69
:103DE0001B68184602F02CF9019800F00BF8019BB3
:103DF000184603B05DF804FB82B00190019B1846A1
:103E000002B0704782B00190019B184602B0704723
:103E100000B583B00190019800F040F903461846C0
:103E200003B05DF804FB000082B0134B0193124B0A
:103E3000C3F1005303F540330093009BB3F5806F4B
:103E400028BF4FF480630D4A13600C4B1B68009A27
:103E5000D31A019A13440A4A1360084B1B68009A4C
:103E6000D31A0093074A009B1360074A019B136013
:103E700000BF02B0704700BFF82D0020700C00207A
:103E80006C0C0020340B0020300B002084B00F4B52
:103E90009B6802930E4B0193002303930CE0039B5A
:103EA0009B00019A1344039A920002990A441268F3
:103EB0001A60039B01330393039BFF2BEFDD034B3E
:103EC000034A9A6000BF04B0704700BF00ED00E0F5
:103ED0000000FF1F00BF704700B583B0124B134AAC
:103EE0001A61114B4FF480525A610F4B4822DA602D
:103EF0000D4B0F4A9A600C4B18229A610A4B0D4ADF
:103F00001A60094A00210C4803F02CF90190019B2A
:103F1000002B02D10948FFF777FA00F0DBFC00BF65
:103F200003B05DF804FB00BFCC2C0020501C002027
:103F3000001C0020944E0100513F0000A04E0100E3
:103F400008B5FFF7C7FF06F09BFA0346184608BD01
:103F500008B51F4B1F4A1A601D4B0B225A601C4BA1
:103F60001C22DA601A4B1C4A9A60194801F0C6FFFD
:103F700002461A4B1A601A4B1A4A1A60184B0B2247
:103F80005A60174B1C22DA60154B174A9A60144886
:103F900001F0B4FF0246154B1A60154B154A1A6022
:103FA000134B0B225A60124B1C22DA60104B124A40
:103FB0009A600F4801F0A2FF0246104B1A6007F00A
:103FC0001DFA00210020FFF7BBFF00BF08BD00BFA6
:103FD000BC2C0020BC4E0100842C0020802C002032
:103FE000702C0020CC4E0100A02C0020481C00208A
:103FF000F02C0020DC4E0100542C0020502C00201E
:1040000008B5FFF711FFFFF741FF03F0C5FA00F015
:10401000F7FBFFF761FF00BF08BD000000B583B0EC
:104020000190054B1B684FF0FF31184601F0A4FFCB
:1040300000BF03B05DF804FB481C002000B583B04E
:104040000190044B1B68184601F0CAFF00BF03B083
:104050005DF804FB481C002000BF704708B5FFF75F
:10406000FBFF00BF08BD000008B5024B1B68984766
:10407000FBE700BF0400002000B583B00190019B66
:10408000002B01D1002304E00199132002F034FD3C
:104090000023184603B05DF804FB000000B587B0AC
:1040A0000190019800F09DF8EFF305830593059BBF
:1040B000002B0BD1EFF310830493049B002B05D14D
:1040C000EFF311830393039B002B07D06FF00501DF
:1040D0000020FFF799FD6FF0050307E0019B0293B5
:1040E0000298044B9C4600DF034600BF184607B009
:1040F0005DF804FB7940000084B0039002910192C6
:1041000000BF04B0704784B0039002910192009305
:1041100000BF04B0704784B003900291019200BFC9
:1041200004B0704784B0039002910192009300BFE5
:1041300004B0704782B00190009100BF02B0704798
:1041400084B003900291019200BF04B0704700BF99
:10415000704700BF704782B0019000BF02B0704747
:1041600000BF704700BF704784B003900291019276
:1041700000BF04B0704782B0019000BF02B070472A
:1041800082B00190009100BF02B0704782B00190F0
:1041900000BF02B0704782B0019000BF02B070470C
:1041A00082B00190009100BF02B0704782B00190D0
:1041B000009100BF02B0704782B0019000BF02B012
:1041C000704700BF704782B0019000BF02B07047D7
:1041D00000BF704784B003900291019200BF04B009
:1041E000704782B0019000BF02B0704700BF7047B7
:1041F00082B00190009100BF02B0704782B0019080
:1042000000BF02B0704782B0019000BF02B070479B
:1042100082B0019000BF02B0704782B0019000915F
:1042200000BF02B0704782B00190009100BF02B0A1
:10423000704782B0019000BF02B0704782B0019019
:10424000009100BF02B0704782B0019000BF02B081
:10425000704782B0019000BF02B0704782B00190F9
:10426000009100BF02B0704782B0019000BF02B061
:10427000704782B0019000BF02B0704782B00190D9
:1042800000BF02B0704782B0019000BF02B070471B
:1042900084B003900291019200BF04B0704782B0D5
:1042A000019000BF02B0704784B003900291009368
:1042B00013468DF8073000BF04B0704784B00390F8
:1042C0000291019200BF04B0704782B0019000BF1C
:1042D00002B0704782B00190009100BF02B07047F9
:1042E00082B00190009100BF02B0704782B001908F
:1042F000009100BF02B0704784B003900291019218
:10430000009300BF04B0704784B003900291019203
:1043100000BF04B0704782B0019000BF02B0704788
:1043200082B00190009100BF02B0704782B001904E
:10433000009100BF02B07047034BDB681B0A03F01B
:1043400007031846704700BF00ED00E000B583B0DA
:10435000124BFF2283F82220104B93F82230DBB25D
:1043600063F0FF03DB43B3FA83F3C3F1200301934C
:10437000FFF7E2FF0090009A019B9A4202D3009B54
:1043800001330193054AFE21019B01FA03F3DBB2DD
:10439000D37700BF03B05DF804FB00BF00ED00E081
:1043A00082B00190044A019B134403F54073FF223D
:1043B0001A7000BF02B0704700E100E082B00190C7
:1043C0000649019B5B11019A02F01F02012000FACD
:1043D00002F241F8232000BF02B0704700E100E084
:1043E00008B5464B1B7A012B03D1FFF7B2FE002321
:1043F00060E1424B1B7A002B06D04FF0FF30FFF7F5
:10440000F1FB4FF0FF3355E1A82200213C4807F0B3
:10441000F7FB3C4B5B6D472B06D86FF00A00FFF7AC
:10442000E1FB4FF0FF3345E1364BDB68002B03D057
:10443000344B1B8A002B06D14FF0FF30FFF7D2FB25
:104440004FF0FF3336E12F4BDB682C4A53662D4B80
:104450001A8A2A4BA3F85C202A4B9B68274A93644C
:10446000284BDA6A274B1B6B1946104600F07EFA80
:104470000346002B04D0234BDB6A204AC2F8883065
:10448000204B5A691F4B9B691946104600F06EFA83
:104490000346002B04D01B4B5B69184AD36704E02A
:1044A000164BD3F88830154AD367164BDA69154B8B
:1044B0001B6A1946104600F059FA0346002B05D036
:1044C000104BDB690D4AC2F8803005E00B4BD3F886
:1044D00088300A4AC2F880300A4B5A6A094B9B6AF4
:1044E0001946104600F042FA0346002B0CD0054B4B
:1044F0005B6A024AC2F884300CE000BF080000206A
:1045000010000020F44E01006B4BD3F888306A4A4B
:10451000C2F88430694B5B6B002B14D0674B586B2F
:10452000664B5B6B1968654B5B6B9A68634B5B6BA7
:10453000DB6800F079FB0346002B04D05F4B5B6B1C
:104540005D4AC2F88C305D4B9B6B002B14D05B4BEB
:10455000986B5A4B9B6B1968584B9B6B9A68574BDF
:104560009B6BDB6800F060FB0346002B04D0534BD1
:104570009B6B514AC2F89030504BDB6B002B14D030
:104580004E4BD86B4D4BDB6B19684C4BDB6B9A6811
:104590004A4BDB6BDB6800F047FB0346002B04D083
:1045A000464BDB6B444AC2F89430444B1B6C002BE7
:1045B00014D0424B186C414B1B6C19683F4B1B6C61
:1045C0009A683E4B1B6CDB6800F02EFB0346002B09
:1045D00004D03A4B1B6C384AC2F89830374B5B6CAE
:1045E000002B14D0354B586C344B5B6C1968334B33
:1045F0005B6C9A68314B5B6CDB6800F015FB034623
:10460000002B04D02D4B5B6C2B4AC2F89C302B4BFB
:104610009B6C002B14D0294B986C284B9B6C196811
:10462000264B9B6C9A68254B9B6CDB6800F0FCFA70
:104630000346002B04D0214B9B6C1F4AC2F8A030CC
:104640001E4BDB6C002B14D01C4BD86C1B4BDB6C53
:1046500019681A4BDB6C9A68184BDB6CDB6800F04E
:10466000E3FA0346002B04D0144BDB6C124AC2F869
:10467000A430124B1B6D002B14D0104B186D0F4B38
:104680001B6D19680D4B1B6D9A680C4B1B6DDB681D
:1046900000F0CAFA0346002B04D0084B1B6D064AF3
:1046A000C2F8A830FFF752FE034B01221A72FFF73F
:1046B00050FD0023184608BD08000020F44E0100FC
:1046C00008B5044B1B7A1846FFF745FD014B1B7AD2
:1046D000184608BD0800002000B585B0424B1B7A83
:1046E000012B06D06FF00600FFF77CFA4FF0FF3386
:1046F00076E03D4B1B6B002B14D13C4B9A6D002395
:1047000000213B4802F080FA0246374B1A63364BD1
:104710001B6B002B06D14FF0FF30FFF763FA4FF011
:10472000FF335DE0314B5B6E002B18D02E4B1B6DC1
:10473000002B14D12D4BDA6D002300212D4802F0FF
:1047400063FA0246284B1A65274B1B6D002B06D1D6
:104750004FF0FF30FFF746FA4FF0FF3340E02648B6
:1047600001F01EFF0390039B002B06D14FF0FF309A
:10477000FFF738FA4FF0FF3332E0039802F020F9E8
:104780001A4B1B6803F00103002B05D00223029390
:10479000029B83F3148804E003230193019B83F3BA
:1047A0001488164B1B68104AD36001F01FFE0246A6
:1047B0000D4B9A610C4B9B69002B09DB0A4B9B69E3
:1047C0001846FFF7EDFD084B9B691846FFF7F6FD0D
:1047D00001F01EFE044B02221A72FFF7C3FC0023F5
:1047E000184605B05DF804FB08000020F44E0100F7
:1047F00075740000057400002C000020B800002033
:1048000000B585B0FFF7A3FCEFF305830393039B8B
:10481000002B0BD1EFF310830293029B002B05D1E9
:10482000EFF311830193019B002B06D06FF005007D
:10483000FFF7D8F96FF0050314E00C4B9C46EFF33B
:10484000148313F0020F0AD113F0040FEFF308835F
:104850000CBF203B683B23F0070383F3098800DF8C
:10486000034600BF184605B05DF804FBE1430000B5
:1048700000B585B0EFF305830393039B002B0BD1A9
:10488000EFF310830293029B002B05D1EFF311830A
:104890000193019B002B06D04FF0FF30FFF75BFC2C
:1048A0004FF0FF3310E0EFF314830093009B03F00D
:1048B0000103002B03D1FFF703FF034604E0044B81
:1048C0009C4600DF034600BF184605B05DF804FBB8
:1048D000C146000000B585B0FFF742FCEFF3058349
:1048E0000393039B002B0BD1EFF310830293029BE6
:1048F000002B05D1EFF311830193019B002B06D010
:104900006FF00500FFF76EF96FF0050326E0FFF783
:10491000AFFF0346022B0CD0124B1B68002B08D0B4
:10492000104B1B685B68002B03D00E4B1B685B6849
:1049300098470D4B9C46EFF3148313F0020F0AD1F6
:1049400013F0040FEFF308830CBF203B683B23F008
:10495000070383F3098800DF034600BF184605B04C
:104960005DF804FB002D0020D946000000B585B09D
:1049700001900091019B002B0CD0019B03F00703D9
:10498000002B07D1009B03F00703002B02D1009BF3
:10499000172B06D8002200990198FFF7ADFB0023E2
:1049A0001EE0019B0393039B009A1A60039B102255
:1049B0005A60019B08330293019A009B1344083B01
:1049C0001A46029B1A60029B1B6800221A60029B17
:1049D00000225A60012200990198FFF78DFB012304
:1049E000184605B05DF804FB00B589B0039002914C
:1049F0000192039B002B07D0029B002B04D0019B4C
:104A000023F00303002B07D00023019A0299039897
:104A1000FFF779FB00235BE0029B08330293029BC4
:104A2000073323F007030293039B08330793079B85
:104A30001B681A46079BD31A0593079B5B6823F0F4
:104A40000303059AD31A0593059A029B9A420ED244
:104A5000079B1B680793079B1B68002BE7D100236C
:104A6000019A02990398FFF74EFB002330E000BF44
:104A7000039B5A68029B1A44039B5A60079B5B681E
:104A8000002B08D1029A019B1A43079B5A60079B8F
:104A90000833069315E0079B5B6823F00302079B2E
:104AA00013440493079B1A68049B1A60029A019BA3
:104AB0001A43049B5A60079B049A1A60049B0833AC
:104AC0000693069B019A02990398FFF71CFB069B2D
:104AD000184609B05DF804FB00B587B0019000915D
:104AE000019B002B02D0009B002B06D100220099D5
:104AF0000198FFF710FB002335E0009B083B039370
:104B000000230493019B083305930EE0059B049357
:104B1000059B1B680593059B002B06D1002200997D
:104B20000198FFF7F8FA00231DE0059A039B9A42CB
:104B3000ECD1019B5A68059B5B6823F00303D21AF2
:104B4000019B5A60049B002B03D1059B00225A60F5
:104B500003E0059B1A68049B1A60012200990198E2
:104B6000FFF7D9FA0123184607B05DF804FB10B42B
:104B700083B001900091019B009A53E8001F8A4284
:104B800002D8BFF32F8F04E0481C43E8000404B1AF
:104B9000F3E70C462346184603B05DF8044B704714
:104BA00010B483B00190019B53E8002F12B9BFF3FA
:104BB0002F8F04E0511E43E8001000B1F4E71446C3
:104BC0002346184603B05DF8044B704710B483B019
:104BD0000190019B53E8002F12B9BFF32F8F04E01F
:104BE000116843E8001000B1F4E714462346184664
:104BF00003B05DF8044B704710B483B0019000918E
:104C0000019B009A19681160BFF35F8F53E8001F82
:104C100010688842F6D143E8002404B1F2E700BFEF
:104C200003B05DF8044B704700B587B00390029164
:104C300001920093039B002B08D0029B002B05D010
:104C4000019B002B02D0009B002B01D1002330E000
:104C5000039B029A1A60039B00225A60039B019AED
:104C60009A60039B009ADA60039B009A5A61029B48
:104C7000019A02FB03F3009A1A44039B1A61009BFA
:104C8000019A02990398FFF74DFA08E0009A019BF8
:104C900013440593009B059A1A60059B0093029BA1
:104CA000013B0293029B002BF0D1009B00221A6073
:104CB0000123184607B05DF804FB00B585B00190EC
:104CC000019B002B05D100210020FFF733FA0023C0
:104CD0001AE0019B1A1D019B1B6819461046FFF73D
:104CE00046FF0246019B1B689A4206D2019B143381
:104CF0001846FFF76BFF039001E00023039303992D
:104D00000198FFF717FA039B184605B05DF804FBFE
:104D100000B585B001900091019B002B09D0019B4B
:104D2000DA68009B9A4204D8019B1A69009B9A4258
:104D300008D86FF0030200990198FFF701FA6FF0AD
:104D4000030319E0019B04331846FFF729FF0346CC
:104D5000002B08D0019B143300991846FFF74CFF35
:104D60000023039302E06FF002030393039A009978
:104D70000198FFF7E5F9039B184605B05DF804FBC1
:104D800010B483B001900B468DF80330019B9DF861
:104D90000320D3E84F1FC3E8402F00B1F9E7CCB29E
:104DA0002346184603B05DF8044B704710B483B037
:104DB0000190019B53E8002F511C43E8001000B103
:104DC000F8E714462346184603B05DF8044B7047D5
:104DD00010B483B00190019B53E8002F12B9BFF3C8
:104DE0002F8F04E0511E43E8001000B1F4E7144691
:104DF0002346184603B05DF8044B7047014BDB694E
:104E0000184670470800002000B585B00190009159
:104E1000019B1B6B002B2ED0019B1B6B039300236C
:104E2000029304E0039B0293039B5B680393039B41
:104E3000002B05D0039BDA78009BDB789A42F1D3F4
:104E4000009B039A5A60009B029A9A60039B002B76
:104E500003D0039B009A9A6002E0019B009ADA62F9
:104E6000029B002B03D0029B009A5A600FE0019B2B
:104E7000009A1A630BE0009B00225A60009B0022FC
:104E80009A60019B009ADA62019B009A1A63019B67
:104E900028331846FFF78AFF00BF05B05DF804FB12
:104EA00000B587B00190019B28331846FFF790FFAB
:104EB0000490049B002B01D1002319E0019BDB6AC5
:104EC00005930FE0059B023301211846FFF758FFB9
:104ED00003468DF80F309DF80F30002B06D0059B50
:104EE0009B680593059B002BECD100E000BF059B60
:104EF000184607B05DF804FB82B001900091009B5A
:104F00005B68002B05D0009B5B68009A92689A60F2
:104F100003E0009B9A68019BDA62009B9B68002B70
:104F200005D0009B9B68009A52685A6003E0009B82
:104F30005A68019B1A6300BF02B0704700B587B082
:104F40000190019B5B78002B00F0BC80019B9B785B
:104F5000002B60D0019B0C330593059B1B680493C9
:104F6000049B5B78002B00F0AF8001990498FFF759
:104F7000C3FF019B00225A70049B0C330199184611
:104F8000FFF7C6FE049B9B68002B00F0A080049BEB
:104F90009B685B78932B40F09A80049B0C331846F7
:104FA000FFF78BFE0190019B002B00F0908004988E
:104FB00001F0F6FA039000220021039801F078FD39
:104FC000039801F0B7FC0290019B03F10C00029BD7
:104FD00008331B681946049B5B6A1A46FBF730FCD2
:104FE000019B07221A70019B01225A70019B00222B
:104FF0009A70029B0C331B68DAB2019BDA7001993C
:105000000498FFF701FF029B08331B6819460498B8
:10501000FFF766F95BE0019B9B680493049B5B7858
:10502000002B53D0049B9B68002B40D0049B9B68B3
:105030005B78832B3BD1019B5B6819460498FFF793
:105040004FF9049801F0ACFA039000220021039874
:1050500001F02EFD039801F06DFC0290029B0833D5
:105060001B681846019B03F10C01049B5B6A1A46FE
:10507000FBF7E6FB029B0C331B68002B06D0029B60
:105080000C331B681A46019BDB781370029B0833B4
:105090001B6819460498FFF743F9019B00225A70D8
:1050A000049B0C3301991846FFF732FE0FE0019B79
:1050B0005B6819460498FFF713F901990498FFF704
:1050C000A3FE04E000BF02E000BF00E000BF07B0A5
:1050D0005DF804FB00B58DB0039002910192039B33
:1050E000002B02D0029B002B06D16FF003010020A1
:1050F000FEF7B2FD0023FCE0029B033323F0030321
:105100000293029B0C330793039BB3FA83F2079B32
:10511000B3FA83F313441F2B06DC6FF00301002066
:10512000FEF79AFD0023E4E0039B079A02FB03F3DA
:105130000693019B002B46D0019B1B680893019BA3
:105140009B680B93019B1B690A93019B5B69059309
:105150000B9B002B0FD00B9B03F00303002B03D101
:10516000019BDB68332B11D86FF008010020FEF79C
:1051700073FD0023BDE0019BDB68002B06D06FF0C0
:1051800008010020FEF768FD0023B2E00A9B002B17
:105190000FD00A9B03F00303002B03D1059A069B53
:1051A0009A4216D26FF009010020FEF755FD002348
:1051B0009FE0059B002B0CD06FF009010020FEF74B
:1051C0004BFD002395E00023089300230B9300235D
:1051D0000A930B9B002B23D1484BD3F8A830002B0C
:1051E00007D0464BD3F8A8301846FFF766FD0B9062
:1051F00008E0424BD3F88830012234211846FFF7EB
:10520000F3FB0B900B9B002B06D16FF004010020E9
:10521000FEF722FD00236CE001238DF8273002E029
:1052200000238DF827300A9B002B37D1334BD3F85E
:105230008430002206991846FFF7D6FB0A900A9B95
:10524000002B20D16FF004010020FEF705FD9DF832
:10525000273003F00103002B13D0284BD3F8A830DC
:10526000002B07D0254BD3F8A8300B991846FFF731
:105270004FFD06E0214BD3F888300B991846FFF715
:105280002BFC002335E0069A00210A9806F0B8FCB2
:105290009DF8273043F002038DF827300B9B08223E
:1052A0001A700B9B01225A700B9B9DF827209A7055
:1052B0000B9B089A5A600B9B00229A600B9B029AE8
:1052C0005A620B9B00229A620B9B0022DA620B9BB4
:1052D00000221A630B9B03F10C000A9B079A0399A7
:1052E000FFF7A2FC054B064A9A670B98FEF7D7FF1B
:1052F0000B9B18460DB05DF804FB00BF08000020B2
:105300003D4F000010B588B0039002910093134602
:105310008DF80730039B0793079B002B06D0079B54
:105320001B78082B02D1029B002B07D16FF00301E1
:105330000798FEF791FC6FF0030397E0079B5B78FB
:10534000002B07D16FF002010798FEF785FC6FF084
:1053500002038BE0079B9B68002B34D0079B9B6864
:105360005B78832B2FD102990798FEF7B9FF079836
:1053700001F016F9069001220021069801F098FB31
:10538000069801F0D7FA0590059B08331B6818466C
:10539000079B5B6A1A460299FBF752FA059B0C338E
:1053A0001B68002B06D0059B0C331B681A469DF822
:1053B00007301370059B08331B6819460798FEF7E2
:1053C000AFFF002352E0079B0C331846FFF775FC34
:1053D0000490049B002B1FD0049B03F10C00079B3F
:1053E0005B6A1A460299FBF72BFA049B07221A7094
:1053F000049B01225A70049B00229A70049B9DF822
:105400000720DA7004990798FFF7FEFC02990798C5
:10541000FEF766FF002329E0009B002B20D0009AB6
:1054200002990798FEF74AFFFFF7E8FC0346194682
:10543000079801F083F80099932001F05DFBEFF3EA
:1054400009831C4623460593059B0833029A1A607C
:10545000059B0C339DF807201A606FF0010305E0EF
:1054600002990798FEF742FF6FF00203184608B052
:1054700010BD10B588B00390029101920093039B78
:105480000793079B002B06D0079B1B78082B02D1A4
:10549000029B002B07D16FF003010798FEF7DCFB9E
:1054A0006FF00303A4E0079B5B78002B07D16FF03C
:1054B00002010798FEF7D0FB6FF0020398E007980F
:1054C000FFF7EEFC0690069B002B25D00699079867
:1054D000FFF712FD069B03F10C01079B5B6A1A465E
:1054E0000298FBF7ADF9019B002B03D0069BDA78FD
:1054F000019B1A7002990798FEF712FF069B002283
:105500005A70079B0C3306991846FFF701FC079B5E
:105510009B68002B6BD029E0009B002B1FD0009ACA
:1055200002990798FEF7F0FEFFF768FC034619465C
:10553000079801F003F80099832001F0DDFAEFF3FA
:1055400009831C4623460593059B0833029A1A607B
:10555000059B0C33019A1A606FF0010348E0029931
:105560000798FEF7E3FE6FF0020341E0079B9B689C
:105570005B78932B3BD1079B0C331846FFF79DFBC1
:105580000690069B002B32D0079801F009F8049092
:1055900001220021049801F08BFA049801F0CAF965
:1055A0000590069B03F10C00059B08331B68194608
:1055B000079B5B6A1A46FBF743F9069B07221A70A2
:1055C000069B01225A70069B00229A70059B0C33A1
:1055D0001B68DAB2069BDA7006990798FFF714FC8D
:1055E000059B08331B6819460798FEF779FE0023D0
:1055F000184608B010BD00B589B003900291009321
:1056000013468DF80730039B0793079B002B09D0A7
:10561000079B1B78082B05D1029B002B02D0009B17
:10562000002B07D06FF003010798FEF715FB6FF012
:10563000030345E0079B5B78002B07D16FF0020165
:105640000798FEF709FB6FF0020339E0079B0C3364
:105650001846FFF732FB0690069B002B2AD0069BCC
:1056600003F10C00079B5B6A1A460299FBF7E8F806
:10567000069B07221A70069B01225A70069B002285
:105680009A70069B9DF80720DA70069B04330593F9
:10569000059B029A1A60069B08330593059B079A9F
:1056A0001A60069800F082FE02990798FEF712FE33
:1056B000002305E002990798FEF718FE6FF0020339
:1056C000184609B05DF804FB00B589B0039002915B
:1056D00001920093039B0793079B002B09D0079B24
:1056E0001B78082B05D1029B002B02D0009B002BBE
:1056F00007D06FF003010798FEF7AEFA6FF00303CF
:1057000037E0079B5B78002B07D16FF00201079809
:10571000FEF7A2FA6FF002032BE00798FFF7C0FB39
:105720000690069B002B1ED0069B03F10C01079BE5
:105730005B6A1A460298FBF783F8019B002B03D0A3
:10574000069BDA78019B1A7002990798FEF7E8FD2C
:10575000069B0C330593059B079A1A60069800F088
:1057600025FE002305E002990798FEF7DFFD6FF0A4
:105770000203184609B05DF804FB000000B58BB0C9
:10578000039002910192019A02990398FEF780FD1D
:10579000EFF305830993099B002B0BD1EFF31083E3
:1057A0000893089B002B05D1EFF311830793079B08
:1057B000002B06D06FF005010020FEF74DFA002304
:1057C0001EE0039B0693029B0593019B049306989E
:1057D0000599049B1A460C4B9C46EFF3148313F077
:1057E000020F0AD113F0040FEFF308830CBF203B24
:1057F000683B23F0070383F3098800DF034600BFFB
:1058000018460BB05DF804FBD550000010B58CB005
:1058100003900291009313468DF807309DF80720FE
:10582000009B02990398FEF73FFDEFF305830B936E
:105830000B9B002B0BD1EFF310830A930A9B002BD9
:1058400005D1EFF311830993099B002B08D09DF834
:105850000720009B02990398FFF7CDFE034616E050
:10586000039B0893029B07939DF807308DF81B302C
:10587000009B0593089B1846079B19469DF81B3013
:105880001A46059B034CA44600DF034600BF18469A
:105890000CB010BD0553000010B58CB00390029100
:1058A00001920093009B019A02990398FEF724FD50
:1058B000EFF305830B930B9B002B0BD1EFF31083BE
:1058C0000A930A9B002B05D1EFF311830993099BDF
:1058D000002B07D0009B019A02990398FFF7F4FE72
:1058E000034613E0039B0893029B0793019B0693D7
:1058F000009B0593089B1846079B1946069B1A4672
:10590000059B044CA44600DF034600BF18460CB0BC
:1059100010BD00BF73540000014BDB69184670478F
:105920000800002000B585B00190019B039332E090
:10593000039B5B690193039BDB7803F00803002B57
:1059400027D0039B00221A7600210398FEF786FCDD
:10595000039B9B68002B1CD0039800F021FE029053
:1059600000220021029801F0A3F8039B029ADA605A
:10597000029BDA6A039B5A61039B00221A61029B15
:10598000039ADA62039B01221A7601210398FEF73B
:1059900055FC019B0393039B002BC9D100BF05B0AD
:1059A0005DF804FB00B587B00190019B002B26D069
:1059B000019B1B680293019B5B680493019B9B689E
:1059C0000593059B002B0FD0059B03F00303002BD1
:1059D00003D1019BDB681B2B17D86FF00801002057
:1059E000FEF726F900235EE0019BDB68002B0CD05C
:1059F0006FF008010020FEF71BF9002353E000239D
:105A000002930023049300230593059B002B23D1CD
:105A1000274BD3F89C30002B07D0254BD3F89C3074
:105A20001846FFF74AF9059008E0214BD3F8883073
:105A300001221C211846FEF7D7FF0590059B002B7D
:105A400006D16FF004010020FEF7F2F800232AE0EF
:105A500001238DF80F3002E000238DF80F30059BF5
:105A600004221A70059B01225A70059B9DF80F2095
:105A70009A70049BDAB2059BDA70059B029A5A6011
:105A8000059B00229A60059B0022DA60059B00229C
:105A90001A61059B00225A61059B00221A7605981F
:105AA000FEF7B6FB059B184607B05DF804FB00BF88
:105AB0000800002000B585B001900091019B039380
:105AC000FFF72AFF0290029B002B07D16FF007011E
:105AD0000398FEF7ADF84FF0FF3395E0039B002BE2
:105AE00003D0039B1B78042B07D06FF003010398AE
:105AF000FEF79EF86FF0030386E0039B5B78002BB4
:105B000007D16FF002010398FEF792F86FF00203DD
:105B10007AE0039B1B7E002B1FD1039B029ADA6065
:105B2000029BDA6A039B5A61039B00221A61029B63
:105B3000DB6A002B03D0029BDB6A039A1A61029B8B
:105B4000039ADA62039B01221A76039B1B7E194695
:105B50000398FEF773FB002356E0039BDB7803F00A
:105B60000103002B1ED0039BDA68029B9A4219D1D5
:105B7000039B1B7EFF2B07D16FF00F010398FEF7ED
:105B800057F86FF002033FE0039B1B7E0133DAB24C
:105B9000039B1A76039B1B7E19460398FEF74EFB68
:105BA000002331E0009B002B29D0039BDB7803F01E
:105BB0000203002B14D0039BDB6893F92020029B87
:105BC00093F920309A420BDA039BDB68029A92F930
:105BD000202083F82020039BDB68184600F00CFD92
:105BE00000990398FEF71FFB0299039800F0A6FCAA
:105BF0000099532000F080FF6FF0010304E0039848
:105C0000FEF722FB6FF00203184605B05DF804FBB7
:105C100000B589B00190019B0593FFF77DFE0490CC
:105C2000049B002B07D16FF007010598FEF700F8E1
:105C30004FF0FF33ADE0059B002B03D0059B1B7895
:105C4000042B07D06FF003010598FDF7F1FF6FF00B
:105C500003039EE0059B5B78002B07D16FF00201E8
:105C60000598FDF7E5FF6FF0020392E0059BDA6807
:105C7000049B9A4207D06FF00D010598FDF7D8FFFD
:105C80006FF0020385E0059B1B7E002B07D16FF0B0
:105C90000E010598FDF7CCFF6FF0020379E0059B3C
:105CA0001B7E013BDAB2059B1A76059B1B7E1946CB
:105CB0000598FEF7D3FA059B1B7E002B01D000232D
:105CC00067E0059B5B69002B04D0059B5B69059A27
:105CD00012691A61059B1B69002B05D0059B1B6986
:105CE000059A52695A6103E0059B5A69049BDA627E
